:100000000C942A010C945B010C945B010C945B0131
:100010000C945B010C945B010C945B010C945B01F0
:100020000C945B010C94FB050C94FB050C94FB05F4
:100030000C945B010C945B010C945B010C945B01D0
:100040000C945B010C945B010C945B010C945B01C0
:100050000C945B010C945B010C945B010C94B10556
:100060000C945B010C945B010C945B010C945B01A0
:100070000C945B010C945B010C945B010C945B0190
:100080000C945B010C945B010C945B010C945B0180
:100090000C947B050C9451050C945B010C945B0152
:1000A0000C945B010C945B010C945B010C945B0160
:1000B0000C945B010C945B010C945B010C945B0150
:1000C0000C945B010C945B010C945B010C945B0140
:1000D0000C945B010C945B010C945B010C945B0130
:1000E0000C945B010C9405030C94F1020C94130323
:1000F0000C9499010C9440020C948A010C94E00237
:100100000C94FB020C94F7020C9417030C94C60297
:100110000C94BB010C9498030C94F3010C94C10251
:100120000C945D010C94D8020C94FF020C94AD0168
:100130000C940D030C9405060C94DC020C94E7025D
:100140000C94ED020C9409030C94E40200000A0BD9
:1001500002090C0D0E080703040100000000000056
:10016000000000000000000000000000000000008F
:10017000000000000000000012111000000000004C
:10018000000000000000000000000000000000006F
:10019000000000002100240027002A002D0030006C
:1001A000330001010000040107010A0101021020CF
:1001B000200808102040102040800201020108049D
:1001C0000201010204081020408080402010080431
:1001D000020180040201804020100804020108048A
:1001E00002010102040810204080010204081020CE
:1001F000408000002200250028002B002E00310046
:10020000340002010000050108010B010505050588
:10021000070508080808020202020A0A080804047E
:1002200004040101010101010101030303030303AC
:100230000303040707070C0C0C0C0C0C0C0C02023B
:10024000020206060606060606060B0B0B0B0B0B38
:100250000B0B050611241FBECFEFD1E2DEBFCDBFD1
:1002600000E00CBF13E0A0E0B2E0E4EEF5E100E056
:100270000BBF02C007900D92AC33B107D9F725E050
:10028000ACE3B3E001C01D92A03EB207E1F711E07C
:10029000CAE2D1E000E006C021970109802FFE01EB
:1002A0000E947209C932D10780E00807A9F70E94AD
:1002B00088060C94F00A0C940000AF92BF92CF9283
:1002C000DF92EF92FF920F931F93CF93DF936C0116
:1002D0007B018B01040F151FEB015E01AE18BF08F7
:1002E000C017D10759F06991D601ED91FC910190A9
:1002F000F081E02DC6011995892B79F7C501DF91B1
:10030000CF911F910F91FF90EF90DF90CF90BF9012
:10031000AF900895FC01538D448D252F30E0842F3C
:1003200090E0821B930B541710F0CF96089501971D
:100330000895FC01918D828D981761F0A28DAE0F0A
:10034000BF2FB11D5D968C91928D9F5F9F73928F91
:1003500090E008958FEF9FEF0895FC01918D828DBD
:10036000981731F0828DE80FF11D858D90E008958A
:100370008FEF9FEF0895FC01918D228D892F90E0E2
:10038000805C9F4F821B91098F73992708958BE49E
:1003900093E00E94BB0121E0892B09F420E0822F29
:1003A0000895FC01A48DA80FB92FB11DA35ABF4F0A
:1003B0002C91848D90E001968F739927848FA68964
:1003C000B7892C93A089B1898C91837080648C93B8
:1003D000938D848D981306C00288F389E02D808167
:1003E0008F7D80830895EF92FF920F931F93CF9399
:1003F000DF93EC0181E0888F9B8D8C8D98131AC060
:10040000E889F989808185FF15C09FB7F894EE8946
:10041000FF896083E889F9898081837080648083A3
:100420009FBF81E090E0DF91CF911F910F91FF90EE
:10043000EF900895F62E0B8D10E00F5F1F4F0F7396
:100440001127E02E8C8D8E110CC00FB607FCFACF51
:10045000E889F989808185FFF5CFCE010E94D1011D
:10046000F1CFEB8DEC0FFD2FF11DE35AFF4FF08222
:100470009FB7F8940B8FEA89FB8980818062CFCF88
:10048000CF93DF93EC01888D8823B9F0AA89BB89CB
:10049000E889F9898C9185FD03C0808186FD0DC0B6
:1004A0000FB607FCF7CF8C9185FFF2CF808185FFD7
:1004B000EDCFCE010E94D101E9CFDF91CF91089518
:1004C00080E090E0892B49F080E090E0892B29F0D2
:1004D0000E94000081110E94000080E090E0892BC2
:1004E00029F00E94C70181110E94000080E090E085
:1004F000892B49F080E090E0892B29F00E940000D0
:1005000081110E94000080E090E0892B49F080E09A
:1005100090E0892B29F00E94000081110C940000CA
:100520000895282F30E0F901E45BFE4F9491F90122
:10053000E455FE4F4491245F3D4FF901249122235D
:1005400009F435C0992311F191509231F8F4E92F53
:10055000F0E08827E155FD4F8F4F0C947209E002BF
:10056000E402C102D802DC02C602E702ED02F10297
:10057000F702FB02FF0205030903C6020D03130382
:100580001703809180008F7780938000E22FF0E046
:10059000EE0FFF1FEE50FE4FA591B4918FB7F89468
:1005A000EC91611148C040954E234C938FBF089544
:1005B000809180008F7DE8CF80918000877FE4CF9D
:1005C00084B58F7784BDE2CF84B58F7DFBCF8091DA
:1005D000B0008F778093B000D9CF8091B0008F7D2D
:1005E000F9CF809190008F7780939000CFCF80914A
:1005F00090008F7DF9CF80919000877FF5CF80911B
:10060000A0008F778093A000C1CF8091A0008F7D44
:10061000F9CF8091A000877FF5CF809120018F775F
:1006200080932001B3CF809120018F7DF9CF8091FD
:100630002001877FF5CF4E2BB8CF3FB7F89480913C
:10064000470390914803A0914903B0914A0326B50E
:10065000A89B05C02F3F19F00196A11DB11D3FBFFA
:10066000BA2FA92F982F8827BC01CD01620F711DC9
:10067000811D911D42E0660F771F881F991F4A95C3
:10068000D1F708958F929F92AF92BF92CF92DF924F
:10069000EF92FF926B017C010E941D034B015C01F4
:1006A000C114D104E104F104B9F00E941D036819DA
:1006B00079098A099B09683E73408105910580F399
:1006C00021E0C21AD108E108F10888EE880E83E023
:1006D000981EA11CB11CE4CFFF90EF90DF90CF904B
:1006E000BF90AF909F908F900895E091FB03F091A1
:1006F000FC038E179F07D8F4FC01EE0FFF1F8E0F2F
:100700009F1FE091F703F091F803E80FF91F408372
:10071000E091F703F091F803E80FF91F618340912E
:10072000F7035091F803840F951FFC01228308956D
:100730003F924F925F926F927F928F929F92AF9271
:10074000BF92CF92DF92EF92FF920F931F93CF93BE
:10075000DF938091450480FF41C180910B0180614E
:1007600080930B01D8ECAD2ED5E0BD2E10E1C12E4B
:10077000D12CE12CF12CF501219131915F01D701B0
:10078000C601C3E0B695A79597958795CA95D1F709
:10079000FC01B896E350FC4F7080818092801381F9
:1007A000D481C581B681A7810C2D077050E040E04F
:1007B000002E04C0220F331F441F551F0A94D2F786
:1007C000422E4724532E5824642E6924352E312678
:1007D0002FEF33E040E050E060E070E080E090E038
:1007E0000E947A0924213521462153216D237C233F
:1007F0008B239A232725208338253183492542835B
:10080000512753836D2764837C2775838B278683C9
:10081000A927A783FAE0CF0ED11CE11CF11C30EB15
:10082000C316D104E104F10409F0A5CF209103011E
:1008300080B1E0B0C0B1A0B1E0B160B140B100B1F1
:1008400050E8859FC00111249927F0E2EF9E7001C6
:10085000112430E4E322FF248E2910E0000F012F41
:10086000001F110B802B58E0C59FE0011124C072BE
:10087000DD278C2BB0E0AA0FBB1FA071BB278A2BF2
:10088000F0E0F595E795E870FF278E2B70E0E3E048
:1008900075956795EA95E1F764707727862B50E0A8
:1008A000F5E055954795FA95E1F742705527842B69
:1008B000E22FF82FCF018095909580932504909397
:1008C000260480915D0490915E04A0915F04B09134
:1008D00060049370AA27BB27C82F80933F03209101
:1008E0005E0430915F044091600450916104609116
:1008F000620470916304809164049091650402E045
:100900000E94950949015A01F3E09F22AA24BB24C1
:10091000D82D80923E0320915F0430916004409175
:100920006104509162046091630470916404809149
:1009300065049091660404E00E94950949015A01FA
:1009400033E09322AA24BB24182D80923D032091EA
:10095000600430916104409162045091630460919D
:10096000640470916504809166049091670406E0C8
:100970000E94950949015A0143E09422AA24BB240C
:10098000C82C80923C03F12CE12C8091F9039091CA
:10099000FA03892B31F020E040E060E0C7010E94BB
:1009A00075035FEFE51AF50A84E1E816F10469F7CB
:1009B000F12CE12CD12C8091F9039091FA03EC14E5
:1009C000FD0484F4892B31F0212F4D2F6C2FC701AA
:1009D0000E947503EFEFEE1AFE0AEDCF80910B0136
:1009E0008F7EBECEE091EF03F091F00360817181C4
:1009F0002091F1033091F203A901409550954623CF
:100A000057235093F4034093F30340815181242BE7
:100A1000352B3093F6032093F503009709F42FC08C
:100A2000F8944091F3035091F4036091F5037091B1
:100A3000F603A091F703B091F8030196E091EF035C
:100A4000F091F00320E038E038E02D91019709F4AF
:100A500011C0608300000000000027FF4083221FB8
:100A600000000000000000000000000040833A95F4
:100A700059F3EFCFF093F003E093EF037894DF9115
:100A8000CF911F910F91FF90EF90DF90CF90BF908B
:100A9000AF909F908F907F906F905F904F903F901E
:100AA00008951F920F920FB60F9211240BB60F925A
:100AB0002F933F934F935F936F937F938F939F9366
:100AC000AF93BF93EF93FF938BE493E00E94D10128
:100AD000FF91EF91BF91AF919F918F917F916F9116
:100AE0005F914F913F912F910F900BBE0F900FBED2
:100AF0000F901F9018951F920F920FB60F9211240E
:100B00000BB60F922F938F939F93EF93FF93E091E8
:100B10005B03F0915C038081E0916103F0916203DB
:100B200082FD1DC09081809164038F5F8F7320913F
:100B30006503821741F0E0916403F0E0E55BFC4F50
:100B4000958F80936403FF91EF919F918F912F91E7
:100B50000F900BBE0F900FBE0F901F9018958081C5
:100B6000F2CF1F920F920FB60F9211242F933F9343
:100B70008F939F93AF93BF938091430390914403CE
:100B8000A0914503B09146033091420323E0230F27
:100B90002D3758F50196A11DB11D20934203809376
:100BA000430390934403A0934503B093460380917D
:100BB000470390914803A0914903B0914A030196DD
:100BC000A11DB11D8093470390934803A09349034F
:100BD000B0934A03BF91AF919F918F913F912F9115
:100BE0000F900FBE0F901F90189526E8230F0296C6
:100BF000A11DB11DD2CF1F920F920FB60F921124DB
:100C00000F900FBE0F901F901895CF93DF93EBE4DA
:100C1000F3E01382128288EE93E0A0E0B0E08483D8
:100C20009583A683B7838EE293E0918380838DECD6
:100C300090E0958784878CEC90E09787868788EC96
:100C400090E0918B808B89EC90E0938B828B8AEC87
:100C500090E0958B848B8EEC90E0978B868B118E39
:100C6000128E138E148ECDEFD3E01B8284E2E6E069
:100C7000F2E0A1E0B4E001900D928A95E1F7E5E49D
:100C8000F4E080E2DF011D928A95E9F780E0EAE274
:100C9000F2E0A6ECB4E001900D928A95E1F7109293
:100CA000C7051092C60586E08883AEEEB3E01C96B9
:100CB0001C921E921B978EE38C9384E190E01E960B
:100CC0009C938E931D97EAE4F2E0E491F0E0EE0F3E
:100CD000FF1FEE50FE4F8591949112969C938E9338
:100CE0001197EAEEF1E0E491F0E01496FC93EE93B4
:100CF0001397E8EEF3E088EB9BE091838083148206
:100D000015828EE282838DE08383DF91CF910895F7
:100D1000789484B5826084BD84B5816084BD85B5D6
:100D2000826085BD85B5816085BD80916E008160E2
:100D300080936E0010928100809181008260809388
:100D4000810080918100816080938100809180008A
:100D50008160809380008091B10084608093B100B5
:100D60008091B00081608093B0008091910082609A
:100D70008093910080919100816080939100809197
:100D800090008160809390008091A10082608093A8
:100D9000A1008091A10081608093A1008091A000BA
:100DA00081608093A0008091210182608093210165
:100DB00080912101816080932101809120018160D7
:100DC0008093200180917A00846080937A008091E2
:100DD0007A00826080937A0080917A0081608093AB
:100DE0007A0080917A00806880937A001092C10026
:100DF00068EE73E080E090E00E944203E0915B03C4
:100E0000F0915C0382E08083E0915703F0915803F6
:100E10001082E0915903F0915A0387E08083109289
:100E20006303E0915F03F091600386E08083E091CB
:100E30005D03F0915E03808180618083E0915D03BA
:100E4000F0915E03808188608083E0915D03F09182
:100E50005E03808180688083E0915D03F0915E0392
:100E600080818F7D808388E993E09093FF03809356
:100E7000FE0381B181B9809104018093040180B3A4
:100E800080BB809107018093070187B18FEF87B9FD
:100E900088B188B98AB1836F8AB98BB18C708BB9EC
:100EA00080910A01806C80930A0180910B018F73FD
:100EB00080930B0180910A01886380930A018091DD
:100EC0000B01877C80930B0184B1806F84B985B15D
:100ED0008F7085B9809101018867809301018091AD
:100EE00002018778809302018DB189638DB98EB13B
:100EF000867C8EB99D9AA5986A9A84B5836A84BDCA
:100F00009D9A279A17BC18BC80918000816A8093B3
:100F1000800084B1806684B91092890010928800A4
:100F200010928B0010928A008091B000816A8093A9
:100F3000B00080910101806480930101249A109295
:100F4000B3001092B40080919000896A8093900061
:100F50008DB189638DB9109299001092980010920A
:100F60009B0010929A0010929D0010929C0080911C
:100F7000A000896A8093A00080910101886380931A
:100F800001011092A9001092A8001092AB001092DB
:100F9000AA001092AD001092AC0080912001896AE5
:100FA0008093200180910A01886380930A01109246
:100FB00029011092280110922B0110922A011092FF
:100FC0002D0110922C017298989AA09810BA11BA1B
:100FD00080917A008E7F80937A0080917A008D7F55
:100FE00080937A0080917A00846080937A00809167
:100FF0007C00806480937C0080917C008F7D809356
:101000007C0080917A00806880937A0087B588237D
:1010100009F4A6C084B5806884BD88B5882309F426
:10102000A2C084B5806284BD8091EE0390E0FC0193
:10103000E455FE4F2491845F9D4FFC0184918823E9
:1010400099F090E0880F991FFC01EE56FE4FA59194
:10105000B491FC01EE50FE4F859194918FB7F894B6
:10106000EC91E22BEC938FBF60E08091EE030E9445
:1010700091028091FB039091FC03EC01CC0FDD1FEA
:10108000C80FD91FD093FA03C093F903CE010E9471
:10109000C4099093F8038093F703009709F466C09E
:1010A000AE0170E060E00E94E90A6CE271E080E06D
:1010B00090E00E9442038091EC03811125C0C1E0C1
:1010C000C093ED0361E08091EA030E94910260E029
:1010D0008091EB030E9491026091E8037091E90313
:1010E000072E000C880B990B0E94420360E0809150
:1010F000EA030E94910260E08091EB030E9491025A
:10110000C093EC031092ED0356ECE52E54E0F52E5F
:1011100065E2B62E7AE0C72ED12C8BE493E00E94D4
:10112000BB01892BB9F1E0910004ED5DCE2FCF73A7
:101130008BE493E00E949901EC2FF0E0EB59FB4F18
:101140008083853251F480910004282F30E0F9012A
:10115000EB59FB4F90819A3271F08091000416C0D8
:1011600084B58F7759CF84B58F7D5DCF1092FA0308
:101170001092F9039ACFF9013296EF73FF27EB59DA
:10118000FB4F90814091FD039417B1F18F5F8F73F6
:101190008093000480917A0086FD2BC08091C60563
:1011A0009091C7052091780030917900FC01EE0FF5
:1011B000FF1FE853FA4F318320830196B6010E9446
:1011C0005E098093C6059093C70590917B00977F39
:1011D000282F2870922B90937B0090917C00877031
:1011E000907E892B80937C0080917A00806480932C
:1011F0007A000E94600291CF9093A50493E0980F2B
:10120000A6EAB4E053E2580FE92FEF73F0E0EB5990
:10121000FB4F40814D93FD01E256F10940839F5FF2
:101220009513F2CFF9013196EF73FF27EB59FB4F7E
:10123000908105EA14E0E801EFEF2991E227F0E060
:10124000EA53FB4FE081EC16FD06B9F79E139ECFE3
:10125000E091FE03F091FF0319958091FD038093C7
:1012600003048093A50480E2E5E2F4E0A4E0B4E0A6
:1012700001900D928A95E1F780E2E5E2F4E0A6EABA
:10128000B4E001900D928A95E1F7EFEFD8018D91CE
:101290008D01E827F0E0EA53FB4FE081CA17DB0736
:1012A000A9F7E0930204B092240444E250E061E024
:1012B00074E08BE493E00E945D014FCF97FB072E13
:1012C00016F4009407D077FD09D00E94B00907FCFE
:1012D00005D03EF4909581959F4F08957095619546
:1012E0007F4F0895EE0FFF1F881F8BBF0790F69169
:1012F000E02D1994002E083090F0982F872F762F2C
:10130000652F542F432F322F22270850F4CF220F5E
:10131000331F441F551F661F771F881F991F0A958B
:10132000B2F7002D089597FD1094002E083098F024
:101330000850232F342F452F562F672F782F892FB2
:10134000912DF4CF15949795879577956795579537
:101350004795379527950A95AAF71124002D0895EA
:10136000AA1BBB1B51E107C0AA1FBB1FA617B707CB
:1013700010F0A61BB70B881F991F5A95A9F78095E7
:101380009095BC01CD0108950F931F93CF93DF93E8
:101390008230910510F482E090E0E091DE05F0915A
:1013A000DF0530E020E0B0E0A0E0309799F42115AF
:1013B000310509F44AC0281B390B24303105D8F512
:1013C0008A819B816115710589F1FB019383828379
:1013D000FE0111C0408151810281138148175907D4
:1013E000E0F04817590799F4109761F012960C93A2
:1013F000129713961C933296CF01DF91CF911F91D4
:101400000F9108950093DE051093DF05F4CF2115A9
:10141000310551F04217530738F0A901DB019A0159
:10142000BD01DF01F801C1CFEF01F9CF9093DF05D6
:101430008093DE05CDCFFE01E20FF31F81939193E0
:101440002250310939832883D7CF2091DC05309190
:10145000DD05232B41F420910202309103023093E9
:10146000DD052093DC052091000230910102211559
:10147000310541F42DB73EB7409104025091050269
:10148000241B350BE091DC05F091DD05E217F30735
:10149000A0F42E1B3F0B2817390778F0AC014E5FE4
:1014A0005F4F2417350748F04E0F5F1F5093DD053F
:1014B0004093DC05819391939FCFF0E0E0E09CCFD7
:1014C000CF93DF930097E9F0FC01329713821282E9
:1014D000A091DE05B091DF05ED0130E020E010972E
:1014E000A1F420813181820F931F2091DC0530917E
:1014F000DD052817390709F061C0F093DD05E09399
:10150000DC05DF91CF910895EA01CE17DF07E8F5FA
:101510004A815B819E0141155105B1F7E901FB83C9
:10152000EA8349915991C40FD51FEC17FD0761F467
:10153000808191810296840F951FE90199838883A8
:10154000828193819B838A83F0E0E0E012968D9103
:101550009C9113970097B9F52D913C911197CD016E
:101560000296820F931F2091DC053091DD0528172C
:10157000390739F6309751F51092DF051092DE05E4
:10158000B093DD05A093DC05BCCFD383C28340813B
:101590005181840F951FC817D90761F44E5F5F4FC3
:1015A00088819981480F591F518340838A819B818B
:1015B000938382832115310509F0B0CFF093DF05C5
:1015C000E093DE059ECFFD01DC01C0CF13821282C5
:1015D000D7CFDC0101C06D9341505040E0F7089532
:0415E000F894FFCFAD
:1015E4000000E00580002A01100101010101010150
:1015F40001010101010101010101010101010101D7
:101604000101010101010101012500316253C4F509
:10161400A697B988DBEA7D4C1F2E4372211087B64A
:10162400E5D4FACB98A93E0F5C6D86B7E4D5427336
:1016340020113F0E5D6CFBCA99A8C5F4A796013032
:1016440063527C4D1E2FB889DAEB3D0C5F6EF9C8EE
:101654009BAA84B5E6D7407122137E4F1C2DBA8B0A
:10166400D8E9C7F6A59403326150BB8AD9E87F4E06
:101674001D2C02336051C6F7A495F8C99AAB3C0DF2
:101684005E6F4170231285B4E7D67A4B1829BE8F5A
:10169400DCEDC3F2A1900736655439085B6AFDCCD2
:1016A4009FAE80B1E2D344752617FCCD9EAF3809B6
:1016B4005A6B4574271681B0E3D2BF8EDDEC7B4AAA
:1016C400192806376455C2F3A0914776251483B2CE
:1016D400E1D0FECF9CAD3A0B586904356657C0F192
:1016E400A293BD8CDFEE79481B2AC1F0A392053486
:1016F400675678491A2BBC8DDEEF82B3E0D146776A
:1017040024153B0A5968FFCE9DAC00000000F3018C
:0C1714005D018A014002BB019901AD019A
:00000001FF
